:02000000F32AE1
:1000060083120313FB01FA01F9018030F800F10CA9
:10001600F00C031C17287408F90775080318750FE8
:10002600FA070318FB0A0310F01F1F287408FA07C3
:1000360075080318750FFB07FB0CFA0CF90CF80C86
:10004600031C0A287B08F3007A08F2007908F100FD
:060056007808F00008002C
:0E005C008312031323088A0022088200080082
:10006A000E3083120313FD00FD0B3928000008002F
:10007A00FB09FA09F909F809F80A0319F90A03192F
:08008A00FA0A0319FB0A080041
:100092007408F8027508031C750FF9027608031C30
:1000A200760FFA027708031C770FFB02F30D073075
:1000B200FC00730DF80DF90DFA0DFB0D7408731C9D
:1000C2007028F8027508031C750FF9027608031CE4
:1000D200760FFA027708031C770FFB027D28F807D8
:1000E20075080318750FF90776080318760FFA07D3
:1000F20077080318770FFB07F30DFC0B5A28720DD4
:10010200F80DF90DFA0DFB0D7408731C9628F80210
:100112007508031C750FF9027608031C760FFA02A4
:100122007708031C770FFB02A328F807750803184A
:10013200750FF90776080318760FFA077708031880
:10014200770FFB07F20D0730FC00720DF80DF90D69
:10015200FA0DFB0D7408721CBC28F8027508031C0A
:10016200750FF9027608031C760FFA027708031C52
:10017200770FFB02C928F80775080318750FF907EE
:1001820076080318760FFA0777080318770FFB072C
:10019200F20DFC0BA628710DF80DF90DFA0DFB0DF1
:1001A2007408721CE228F8027508031C750FF90224
:1001B2007608031C760FFA027708031C770FFB02FE
:1001C200EF28F80775080318750FF9077608031862
:1001D200760FFA0777080318770FFB07F10D073040
:1001E200FC00710DF80DF90DFA0DFB0D7408711C70
:1001F2000829F8027508031C750FF9027608031C1A
:10020200760FFA027708031C770FFB021529F8070D
:1002120075080318750FF90776080318760FFA07A1
:1002220077080318770FFB07F10DFC0BF228700D0E
:10023200F80DF90DFA0DFB0D7408711C2E29F80248
:100242007508031C750FF9027608031C760FFA0273
:100252007708031C770FFB023B29F8077508031880
:10026200750FF90776080318760FFA07770803184F
:10027200770FFB07F00D0730FC00700DF80DF90D3C
:10028200FA0DFB0D7408701C5429F8027508031C42
:10029200750FF9027608031C760FFA027708031C21
:1002A200770FFB026129F80775080318750FF90724
:1002B20076080318760FFA0777080318770FFB07FB
:1002C200F00DFC0B3E29701874297408F8077508A4
:1002D2000318750FF90776080318760FFA077708DF
:0802E2000318770FFB07080069
:1002EA00831203137408003A031D90297508003A13
:1002FA00031D90297608003A031D90297708003AD1
:10030A00031D9029FF30F000FF30F100FF30F200AA
:10031A007F30F300292A83120313FC01F71BFC0A1E
:10032A00FD01FB01FA01F901F80173087204710475
:10033A0070040319242A73087706A000A01BFD097C
:10034A00F71FB229F409F509F609F709F40A03199E
:10035A00F50A0319F60A0319F70AF31FBF29F00968
:10036A00F109F209F309F00A0319F10A0319F20A69
:10037A000319F30A73087704A000A01BE029492097
:10038A00FC1BFD29FD1F242AF009F109F209F309D2
:10039A00F00A0319F10A0319F20A0319F30AF80910
:1003AA00F909FA09FB09F80A0319F90A0319FA0AF9
:1003BA000319FB0A242AF71FF729F31BF1297308EB
:1003CA00FB007208FA007108F9007008F800F301DE
:1003DA00F201F101F001C729F301F201F101F00183
:1003EA00F00A0034F309F209F109F009FC17C429EB
:1003FA00F80A0319F90A0319FA0A0319FB0A740815
:10040A007802031DC72975087902031DC7297608D2
:10041A007A02031DC72977087B02031DC729FB013E
:10042A00FA01F901F801F00A0319F10A0319F20AAB
:10043A000319F30AF31FC729A0012016FF34A001EC
:0A044A007C1C282A3D20003E08001B
:10045400831603130711831212150C309704080036
:10046400FF3083120313A600FF30A700FF30A8005B
:10047400FF309F01C0309F042109F00070088316EB
:0C0484009F051F179F1783121F1408000C
:10049000831203132230FC00F801F901FA01FB0179
:1004A000FC0303197E2A0310FB0CFA0CF90CF80C60
:1004B000F30CF20CF10CF00C031C502AFC03031992
:1004C000702A7408F80775080318750FF90776087D
:1004D0000318760FFA0777080318770FFB07542ADB
:1004E0007408F80775080318750FF90776080318DC
:0E04F000760FFA0777080318770FFB0708004E
:1004FE002E208A110A128000840AA20A0319A30A66
:08050E00F003031D7F2A080021
:10051600831603131208013EF000F1010318F10AD5
:1005260083123B08F400F50103200630F200700840
:10053600F4007108F50072080319A62AF50CF40CEC
:10054600F513FF3E9F2A0430F1007408F00071088D
:100556000319B12AF00D7010FF3EAB2A303070053A
:10056600F3007408F0007508F100F10CF00CF113BB
:10057600F10CF00CF113700895000F309705730815
:0405860097040800CE
:0C058A008312031395011712971208004A
:10059600831203139F01C0309F042109F0007008E5
:1005A60083169F051F179F1783123B08F000F00D57
:1005B6007010F00D7010F00D701070089F041F146D
:1005C60035201F151F1DE92A0000E52A1F101E08E9
:1005D600F100F00183161E08F0040030F104080053
:1005E6008E2483160313051487010815061083123B
:1005F6000614121492147C3083169200C5222A2205
:100606003222003008180130AD00AE0100308818E3
:100616000130AF00B001003008190130B100B2015D
:10062600003088190130B300B4010030081A0130D7
:10063600B500B6010030881A0130B700B8010030A5
:10064600081B0130B900BA01BB01CB227008831226
:10065600A4007108A5000030F200F300FF30F4009A
:10066600F501F601F70148227008A9007108AA00F1
:100676007208AB007308AC00FF30F4000330F500DD
:10068600F601F70175217008A9007108AA00720821
:10069600AB007308AC007008BB008B220D30FC0069
:1006A600FB30FD00FD0B552BFC0B552B000000000D
:1006B60000303806031D612B0130370603196C2BF9
:1006C60000303A06031D692B0130390603196C2BDD
:1006D600BD2B071287120713871387150730FB00F8
:1006E6001730FC006A30FD00FD0B772BFC0B772BD7
:1006F600FB0B772B000087110230FB000430FC0057
:10070600BA30FD00FD0B852BFC0B852BFB0B852BD7
:10071600000087150430FB000C30FC003330FD0070
:10072600FD0B932BFC0B932BFB0B932B0000000074
:1007360087110230FB000430FC00BA30FD00FD0BCF
:10074600A22BFC0BA22BFB0BA22B000000303806C1
:10075600031DAF2B003037060319BA2B00303A06BB
:10076600031DB72B003039060319BA2BBB2BBC2B44
:10077600702B862C00302E06031DC32B01302D0650
:10078600031D262C00303006031DCB2B00302F0610
:10079600031DDA2B00303206031DD32B0030310641
:1007A600031DDA2B0712871607178713252C00302F
:1007B6003006031DE02B01302F06031DEF2B003002
:1007C6003206031DE82B00303106031DEF2B0712FE
:1007D600871207178713252C00303006031DF52BCB
:1007E60000302F06031D042C00303206031DFD2B9E
:1007F60001303106031D042C0712871607138713D1
:10080600252C00303006031D0A2C01302F06031D4F
:10081600252C00303206031D122C01303106031D33
:10082600252C07128712071387131530FB004B3050
:10083600FC00BE30FD00FD0B1E2CFC0B1E2CFB0B22
:100846001E2C0000862C00303406031D2C2C003094
:100856003306031D3B2C00303606031D342C0030B6
:100866003506031D3B2C0716871207138717862CA0
:1008760000303406031D412C01303306031D502C75
:1008860000303606031D492C00303506031D502C5A
:100896000712871207138717862C00303406031DAC
:1008A600562C00303306031D652C00303606031D1A
:1008B6005E2C01303506031D652C071687120713BB
:1008C6008713862C00303406031D6B2C013033064B
:1008D600031D862C00303606031D732C01303506A9
:1008E600031D862C07128712071387131530FB008A
:1008F6004B30FC00BE30FD00FD0B7F2CFC0B7F2C2B
:0A090600FB0B7F2C0000042B872C54
:10091C0021308400013083120313F0008D30A200CB
:08092C000430A3007F22080043
:02091A000F3498
:02400E004A2F37
:00000001FF
